:100000000C9456000C9468000C9468000C946800E2
:100010000C9468000C9468000C9468000C946800C0
:100020000C9468000C9468000C9468000C946800B0
:100030000C9468000C9468000C9468000C946800A0
:100040000C9468000C9468000C9468000C94680090
:100050000C9468000C9468000C9468000C94680080
:100060000C9468000C9468000C9468000C94680070
:100070000C9468000C9468000C9468000C94680060
:100080000C9468000C9468000C9468000C94680050
:100090000C9468000C9468000C9468000C94680040
:1000A0000C9468000C9468000C94680011241FBE26
:1000B000CFEFDAE0DEBFCDBF21E0A0E0B1E001C0CC
:1000C0001D92A730B207E1F70E94A6010C94D3015C
:1000D0000C94000091E890938000882351F02598BB
:1000E0002D9888E0809381001092890010928800FA
:1000F0000895259A2D9A8CE0809381000895ECE76D
:10010000F0E09081987F8770892B8083EAE7F0E0A8
:10011000808180648083808186FDFDCF809178001E
:1001200090917900089521E030E002C0220F331F42
:100130008A95E2F7209520BB21BB80E480937C0068
:1001400086E880937A0010927B00089521E030E0E9
:10015000F901082E02C0EE0FFF1F0A94E2F7062EE7
:1001600002C0220F331F0A94E2F7922F9E2B50B346
:10017000592B50BB442331F031B3E095E3232E2BB0
:1001800021BB05C031B320952323E22BE1BB606482
:10019000ECE7F0E06083AFE1BEE41197F1F700C057
:1001A000000020B39095292320BB21B3922391BB5B
:1001B000806480838FE19EE40197F1F700C0000026
:1001C000EAE7F0E0808180648083808186FDFDCF56
:1001D00080917800909179000895CF93DF93C4E0E7
:1001E000D0E040E061E080E00E94A600209105019F
:1001F00030910601820F931F9093060180930501B1
:1002000041E061E080E00E94A6002091030130916E
:100210000401820F931F909304018093030121979F
:1002200001F7209105013091060136952795369505
:1002300027959695879596958795A901481B590B03
:10024000CA0150930201409301018B559F4F12F454
:1002500080E090E065E070E00E94AB011092060142
:10026000109205011092040110920301862F972F1E
:100270008032910514F08FE190E0DF91CF910895E5
:1002800010920001109206011092050110920401D3
:100290001092030187E00E94930087E00E947F0094
:1002A00081E00E946A000895CF93DF930E94ED00E1
:1002B0008A31B8F187E00E947F00EC0187E00E945C
:1002C0007F00D3709370C80FD91FD695C795D69568
:1002D000C795D695C795CE01887F9927892BB9F008
:1002E00080910001811105C00E946A0081E0809325
:1002F0000001DD27CF3BD10510F0CEEBD0E00C2E76
:10030000000CDD0BD0938900C093880013C080914E
:100310000001882379F081E00E946A0010920001B8
:1003200009C080910001882329F081E00E946A00C1
:10033000109200012FEF80E792E021508040904022
:10034000E1F700C00000DF91CF9108950E944001C5
:100350000E945401FDCF97FB072E16F4009407D09E
:1003600077FD09D00E94BF0107FC05D03EF49095AF
:1003700081959F4F0895709561957F4F0895AA1BB1
:10038000BB1B51E107C0AA1FBB1FA617B70710F080
:10039000A61BB70B881F991F5A95A9F780959095B2
:0A03A000BC01CD010895F894FFCFD1
:00000001FF
