S0130000546F756368333275345F312E7372656370
S11300000C9456000C9468000C9468000C946800DE
S11300100C9468000C9468000C9468000C946800BC
S11300200C9468000C9468000C9468000C946800AC
S11300300C9468000C9468000C9468000C9468009C
S11300400C9468000C9468000C9468000C9468008C
S11300500C9468000C9468000C9468000C9468007C
S11300600C9468000C9468000C9468000C9468006C
S11300700C9468000C9468000C9468000C9468005C
S11300800C9468000C9468000C9468000C9468004C
S11300900C9468000C9468000C9468000C9468003C
S11300A00C9468000C9468000C94680011241FBE22
S11300B0CFEFDAE0DEBFCDBF21E0A0E0B1E001C0C8
S11300C01D92A630B207E1F70E945D010C94D7019E
S11300D00C94000080E480937C0084EC80937A008C
S11300E010927B00EAE7F0E0808186FDFDCF089561
S11300F021E030E0F901082E02C0EE0FFF1F0A9440
S1130100E2F7062E02C0220F331F0A94E2F7922F61
S11301109E2B50B3592B50BB442331F031B3E0959F
S1130120E3232E2B21BB05C031B320952323E22BDF
S1130130E1BB6064ECE7F0E06083AFE1BEE41197FB
S1130140F1F700C0000020B39095292320BB21B310
S1130150922391BB806480838FE19EE40197F1F741
S113016000C00000EAE7F0E0808180648083808141
S113017086FDFDCF8091780090917900089594B127
S113018021E030E002C0220F331F8A95E2F7209568
S1130190922394B985B1282325B90895ECE7F0E0BA
S11301A09081907F90839081892B8083EAE7F0E0AF
S11301B0808180648083808186FDFDCF809178007A
S11301C0909179000895CF93DF93C4E0D0E040E0AC
S11301D061E080E00E9478002091040130910501E3
S11301E0820F931F909305018093040141E061E025
S11301F080E00E9478002091020130910301820F77
S1130200931F9093030180930201219701F720919A
S113021004013091050136952795369527959695D5
S1130220879596958795A901481B590BCA01509348
S11302300101409300018B559F4F12F480E090E040
S113024065E070E00E94AF01109205011092040174
S11302501092030110920201862F972F803291058C
S113026014F08FE190E0DF91CF910895E0E8F0E0A1
S1130270908191689083882359F025982D98E1E81E
S1130280F0E080818B7F8083808188608083089503
S1130290259A2D9AE1E8F0E080818C6080830895AE
S11302A0259A2D98E0E8F0E0808181688083E1E878
S11302B0F0E080818C608083089587E00E94BF0015
S11302C00E946A000E94500115E00F2EF8E8EF2EFC
S11302D0F12CF02D00E00E94E300863068F187E005
S11302E00E94CE00EC0187E00E94CE00D370937090
S11302F0C80FD91FD295C295CF70CD27DF70CD27F7
S1130300CE0187709927892B69F0111104C0802FC1
S11303100E94360111E00C2E000CDD0BF701D18395
S1130320C08313C0112319F081E00E943601F70144
S113033011821082102F09C0112319F081E00E944C
S11303403601F70111821082102FFFEF20E782E0BF
S1130350F15020408040E1F700C00000BCCF97FB83
S1130360072E16F4009407D077FD09D00E94C3012C
S113037007FC05D03EF4909581959F4F08957095A4
S113038061957F4F0895AA1BBB1B51E107C0AA1FAB
S1130390BB1FA617B70710F0A61BB70B881F991F22
S11303A05A95A9F780959095BC01CD010895F894CC
S10503B0FFCF79
S9030000FC
