S0130000546F756368333238505F312E7372656391
S11300000C9434000C9451000C9451000C94510045
S11300100C9451000C9451000C9451000C94510018
S11300200C9451000C9451000C9451000C94510008
S11300300C9451000C9451000C9451000C945100F8
S11300400C9451000C9451000C9451000C945100E8
S11300500C9451000C9451000C9451000C945100D8
S11300600C9451000C94510011241FBECFEFD8E022
S1130070DEBFCDBF11E0A0E0B1E0EEE9F2E002C0E6
S113008005900D92A034B107D9F721E0A0E4B1E0C6
S113009001C01D92A634B207E1F70E9418010C9426
S11300A04D010C94000080E480937C0084EC8093E8
S11300B07A0010927B00EAE7F0E0808186FDFDCFB4
S11300C0089521E030E0F901082E02C0EE0FFF1F71
S11300D00A94E2F7062E02C0220F331F0A94E2F7B5
S11300E0922F9E2B57B1592B57B9442331F038B175
S11300F0E095E3232E2B28B905C038B1209523239E
S1130100E22BE8B96064ECE7F0E06083AFE1BEE4C1
S11301101197F1F700C0000027B19095292327B962
S113012028B1922398B9806480838FE19EE401977B
S1130130F1F700C00000EAE7F0E08081806480838A
S1130140808186FDFDCF809178009091790008959B
S1130150CF93DF93C4E0D0E040E061E080E00E9410
S113016061002091440130914501820F931F9093C7
S113017045018093440141E061E080E00E94610018
S11301802091420130914301820F931F90934301C8
S113019080934201219701F7209144013091450158
S11301A036952795369527959695879596958795AF
S11301B0A901481B590BCA015093410140934001C6
S11301C08B559F4F12F480E090E065E070E00E9450
S11301D025016032710514F06FE170E0660F771F3E
S11301E0FB01E050FF4F8081082E000C990B909387
S11301F08900809388001092450110924401109266
S11302004301109242018FE39CE90197F1F700C08A
S11302100000DF91CF910895219AE0E8F0E0808119
S113022081688083E1E8F0E08081896080830895BB
S11302300E9453000E940C018CE390E0909389008B
S1130240809388000E94A800FDCF97FB072E16F428
S1130250009407D077FD09D00E94390107FC05D02E
S11302603EF4909581959F4F0895709561957F4FC9
S11302700895AA1BBB1B51E107C0AA1FBB1FA617E9
S1130280B70710F0A61BB70B881F991F5A95A9F73B
S111029080959095BC01CD010895F894FFCFA0
S113029E000001000100020002000200030003003E
S11302AE040005000600070009000A000C000F00F8
S11302BE1100150019001E0024002B0033003D0010
S11302CE4900570068007D009500B200D500FF007C
S9030000FC
